:100000000C942A000C943F000C943F000C943F0089
:100010000C943F000C943F000C943F000C943F0064
:100020000C943F000C943F000C943F000C943F0054
:100030000C943F000C943F000C943F000C943F0044
:100040000C943F000C943F000C943F000C943F0034
:100050000C943F0011241FBECFE5D8E0DEBFCDBF1A
:1000600011E0A0E6B0E0E4E8F7E502C005900D92EB
:10007000A437B107D9F70E9418190C94C02B0C941F
:100080000000A0E3B0E0E7E4F0E00C94442BA8E02B
:100090004E010894811C911CF401BA2F1192BA955B
:1000A000E9F729833A834B835C836D837E838F8357
:1000B0009887CE010996FC011192AA95E9F7A986C5
:1000C000BA86CB86DC86ED86FE860F87188B298163
:1000D0003A814B815C812DA73EA74FA758AB790190
:1000E0008A018FEF9FEFA0E0B0E0E822F9220A2317
:1000F0001B231A014424552429853A854B855C85A8
:1001000029A73AA74BA75CA759016A01A822B922DF
:10011000CA22DB223A0188249924C601B501A8012C
:1001200097010E94032B6DA37EA38FA398A7C40100
:10013000B3010E94032B69A37AA38BA39CA3C601DE
:10014000B501A20191010E94032B7B018C01C40126
:10015000B3010E94032B5B016C0189A19AA1ABA1A1
:10016000BCA18E0D9F1DA01FB11F89A39AA3ABA395
:10017000BCA32DA13EA14FA158A5CA01AA27BB2708
:1001800029A13AA14BA15CA1280F391F4A1F5B1F6F
:1001900029A33AA34BA35CA32E153F0540075107A3
:1001A00040F480E090E0A1E0B0E0A80EB91ECA1EC5
:1001B000DB1E89A19AA1ABA1BCA19D0144275527B3
:1001C0002A0D3B1D4C1D5D1D2D8F3E8F4F8F58A35B
:1001D0006C01BB24AA248DA19EA1AFA1B8A5A070DB
:1001E000B070A80EB91ECA1EDB1EA98EBA8ECB8EA9
:1001F000DC8E9A8C8B8C7C8C9E8D6F8D78A1FE0111
:10020000719688E0DF011D928A95E9F72D8B9E8B10
:100210006F8B788F2D853E854F8558896DA57EA57E
:100220008FA598A90E94032B7B018C012D813E8113
:100230004F81588569A57AA58BA59CA50E94032BA3
:10024000E60EF71E081F191F6D897E898F89988D0C
:100250006E0D7F1D801F911F6D8B7E8B8F8B988FF6
:10026000EE892A2D392D482D572D7E2F8F89988D77
:10027000E096E2E10C94602BEF92FF920F93DF93F4
:10028000CF93CDB7DEB760970FB6F894DEBF0FBE41
:10029000CDBFA82F002309F461C07E010894E11CA2
:1002A000F11C88E0F70111928A95E9F729833A83D6
:1002B0004B835C836D837E83AF83988780E2801B52
:1002C000E82FFF27E7FDF09549815A816B817C81FA
:1002D000181684F019861A861B861C86882799278B
:1002E0008E1B9F0B04C0440F551F661F771F8A95F6
:1002F000D2F728C0202F332727FD3095DB01CA0114
:10030000022E04C0880F991FAA1FBB1F0A94D2F7A0
:1003100089879A87AB87BC8704C076956795579580
:100320004795EA95D2F78D819E81AF81B88504C04B
:10033000880F991FAA1FBB1F2A95D2F7482B592B4C
:100340006A2B7B2B4D875E876F87788B29853A8553
:100350004B855C856D857E85AF8598898A2F6096F3
:100360000FB6F894DEBF0FBECDBFCF91DF910F91D6
:10037000FF90EF900895EF92FF920F931F937B01F0
:100380008C0120E030E040E05FE40E948A0E882388
:100390008CF0C801B70120E030E040E05FE40E944B
:1003A000560C0E94480F9B01AC0120503040404049
:1003B000504806C0C801B7010E94480F9B01AC011C
:1003C000B901CA011F910F91FF90EF900895A4E029
:1003D000B0E0EDEEF1E00C94462B49015A016B01BF
:1003E0007C01D501C4019C01AD01550F220B322FB8
:1003F000A901881599F4991589F4AA1579F4BB1502
:1004000069F42C1559F42D1549F42E1539F42F15CE
:1004100029F4C501B4010E94EA0ED0C09401A501DF
:10042000B601C70100E20E949C0FC901A42FB52F9D
:10043000B7FF07C0B095A095909581959F4FAF4F9E
:10044000BF4F803020E0920721E0A20720E0B207F2
:1004500080F48F3F9105A105B10531F028F028E027
:1004600030E040E050E016C020E030E040E050E0F6
:1004700011C0803030E0930730E0A30731E0B307CC
:1004800028F028E130E040E050E004C020E130E016
:1004900040E050E060E2462E512C612C712C421A53
:1004A000530A640A750A04C0B695A795979587956F
:1004B0002A95D2F7FC01ED58FF4F8081481A510868
:1004C00061087108411451046104710429F460E069
:1004D00070E080E09FED72C081E290E0A0E0B0E0CB
:1004E00084199509A609B70989839A83AB83BC83CC
:1004F00019819401A501B601C701012F0E949C0F2B
:10050000C901DA012C013D0180E290E0A981BA81A4
:100510008A1B9B0BA501940104C0220F331F441FAB
:10052000551F8A95D2F7211531054105510541F036
:1005300081E090E0A0E0B0E0482A592A6A2A7B2AAC
:1005400029813A814B815C81203231054105510579
:1005500059F40F2EF0E0CF2EF0E0DF2EF0E8EF2E72
:10056000FFE4FF2EF02D22C089819A81AB81BC81EE
:100570004F97A105B10559F40F2EF0E0CF2EF0E012
:10058000DF2EF0E0EF2EFFE4FF2EF02D0FC061E034
:1005900070E080E090E004C0660F771F881F991F0D
:1005A0001A95D2F70E94EA0E6B017C01C301B201D9
:1005B0000E94EA0EA70196010E94B40C2496E0E185
:1005C0000C94622BA2E7B0E0E8EEF2E00C94442B2E
:1005D000982E892E712E88E0FE013196DF01682E5B
:1005E0001D926A94E9F729833A834B835C836D8378
:1005F0007E839F829887FE013996DF011D928A953E
:10060000E9F7A986BA86CB86DC86ED86FE860F875B
:10061000188B8D819E81AF81B885B7FD07C0E196AB
:100620001CAE1DAE1EAE1FAEE19764C0219581E0E9
:10063000121608F080E0319591E0131608F090E072
:10064000B32FB81B81E03B1708F080E0982B419551
:1006500031E0141608F030E0A42FA91B81E04A17FE
:1006600008F080E0382B519591E0151608F090E0E5
:10067000F52FF31B81E05F1708F080E0982B619560
:1006800031E0161608F030E0E62FE91B81E06E1726
:1006900008F080E0382B719541E0171608F040E033
:1006A000572F531B81E0751708F080E0482B892DE8
:1006B000819591E0181608F090E0682E641A462D96
:1006C00031E0861508F030E0932B882D8195891B49
:1006D0002983BA83AB83FC83ED835E834F83888752
:1006E0002FEF3FEF4FEF5FEFE1962CAF3DAF4EAFF7
:1006F0005FAFE1978D859E85AF85B889B7FF6AC0EA
:10070000E1964CAD5DAD6EAD7FADE19740955095F6
:1007100060957095E1964CAF5DAF6EAF7FAFE1979E
:10072000A19481E01A1408F080E0B19491E01B14C8
:1007300008F090E06B2D681B81E0B61608F080E0B1
:10074000982BC19421E01C1408F020E05C2D591B6B
:1007500081E0C51608F080E0282BD19491E01D14AB
:1007600008F090E04D2D421B81E0D41608F080E0A7
:10077000982BE19421E01E1408F020E03E2D391B57
:1007800081E0E31608F080E0282BF19491E01F143B
:1007900008F090E07F2D721B272F81E0F71608F0FC
:1007A00080E0982B019511E0101608F010E0802FE2
:1007B000891B982F81E0091708F080E0182B872DFE
:1007C0008195811BA9866A875B874C873D872E8729
:1007D0009F87888B99812A813B814C815D816E81C5
:1007E0007F81A885B9851A850B85FC84ED84DE841C
:1007F000CF84B88888E0E1E18E2E912C8C0E9D1E6E
:10080000F401682E11926A94E9F7998B2A8B3B8B3D
:100810004C8B5D8B6E8B7F8BA88F9E01275E3F4F2D
:10082000F90111928A95E9F7B98F1A8F0B8FFC8E17
:10083000ED8EDE8ECF8EB8A2298C3A8C4B8C5C8CE0
:10084000ED8CFE8C0F8D18A169887A888B889C8826
:1008500021966CAE7DAE8EAE9FAE21976D887E8860
:100860008F88988CE114F1040105110509F0D9C3B2
:10087000621473048404950408F057C100E0201644
:1008800000E0300601E0400600E0500688F41FEF6B
:10089000211631044104510439F030F048E0E42ECF
:1008A000F12C012D112D18C0EE24FF24870114C056
:1008B00020E0221620E0320620E0420621E0520627
:1008C00030F038E1E32EF12C012D112D05C020E18F
:1008D000E22EF12C012D112DD201C1010E2C04C0EC
:1008E000B695A795979587950A94D2F78D589F4FFF
:1008F000DC012C9180E290E0A0E0B0E08E199F092D
:10090000A00BB10B7C018D01E21AF108010911095C
:10091000E114F10401051105D1F10E2C04C0220CE3
:10092000331C441C551C0A94D2F7A40193010E2CCD
:1009300004C0220F331F441F551F0A94D2F780E2D0
:1009400090E08E199F0921966CAC7DAC8EAC9FAC6B
:10095000219704C096948794779467948A95D2F7E8
:10096000622A732A842A952A2196ACACBDACCEACFF
:10097000DFAC219704C0AA0CBB1CCC1CDD1CEA9484
:10098000D2F72196ACAEBDAECEAEDFAE21976201FE
:10099000EE24FF242996CCAEDDAEEEAEFFAE299755
:1009A00092018101207030702D960CAF1DAF2EAFDB
:1009B0003FAF2D97C401B301A70196010E94222BDE
:1009C0007B018C01C401B30129962CAD3DAD4EAD28
:1009D0005FAD29970E94222BC901DA013C014D012C
:1009E000C401B3012D962CAD3DAD4EAD5FAD2D973D
:1009F0000E94032B9B01AC018701FF24EE2421966A
:100A0000ACACBDACCEACDFAC2197C601AA27BB27EE
:100A100057016801A82AB92ACA2ADB2AA216B306F6
:100A2000C406D506E0F408946108710881089108AD
:100A3000A20CB31CC41CD51CA214B304C404D5045A
:100A400070F0A216B306C406D50648F408946108EF
:100A5000710881089108A20CB31CC41CD51CA21AF1
:100A6000B30AC40AD50AC601B50129962CAD3DAD1D
:100A70004EAD5FAD29970E94222B7B018C01C601F0
:100A8000B50129962CAD3DAD4EAD5FAD29970E94C5
:100A9000222BC901DA015C016D01C601B5012D9659
:100AA0002CAD3DAD4EAD5FAD2D970E94032B9B014C
:100AB000AC018701FF24EE2421968CAD9DADAEAD37
:100AC000BFAD2197A070B070E82AF92A0A2B1B2B22
:100AD000E216F30604071507C0F40894A108B1084C
:100AE000C108D108E20CF31C041D151DE214F30427
:100AF0000405150550F0E216F3060407150728F45F
:100B00000894A108B108C108D108D3019927882702
:100B100086017501E82AF92A0A2B1B2B2596ECAED3
:100B2000FDAE0EAF1FAF2597EBC421143104410475
:100B3000510471F461E070E080E090E020E030E08A
:100B400040E050E00E94222BC901DA011C012D0176
:100B500000E0201600E0300601E0400600E050060C
:100B600088F41FEF211631044104510431F028F0BC
:100B700048E050E060E070E017C040E050E060E026
:100B800070E012C020E0221620E0320620E042068B
:100B900021E0520628F048E150E060E070E004C037
:100BA00040E150E060E070E0D201C101042E04C0D9
:100BB000B695A795979587950A94D2F78D589F4F2C
:100BC000DC012C91E0E2EE2EF12C012D112DD8014B
:100BD000C701841B950BA60BB70B821B9109A109BA
:100BE000B1090097A105B10561F464015301A21890
:100BF000B308C408D50831E0632E712C812C912CE8
:100C000024C1E3968FAFE397082E04C0220C331C57
:100C1000441C551C0A94D2F7EE2DE81B64015301C5
:100C20000E2E04C0D694C794B794A7940A94D2F712
:100C3000A4019301E3960FACE39704C0220F331F86
:100C4000441F551F0A94D2F721966CAC7DAC8EAC34
:100C50009FAC21970E2E04C0969487947794679446
:100C60000A94D2F784017301E22AF32A042B152B8C
:100C7000E9AEFAAE0BAF1CAF320188249924920181
:100C800081012070307061960CAF1DAF2EAF3FAF69
:100C90006197C601B501A40193010E94222B7B013B
:100CA0008C01C601B501A40193010E94222BC90148
:100CB000DA0165968CAF9DAFAEAFBFAF6597BC0153
:100CC000CD0161962CAD3DAD4EAD5FAD61970E94FB
:100CD000032B9B01AC018701FF24EE24A9ACBAAC25
:100CE000CBACDCACC601AA27BB275C016D01AE28EA
:100CF000BF28C02AD12AA216B306C406D50660F5BD
:100D000065966CAD7DAD8EAD9FAD659761507040C1
:100D10008040904065966CAF7DAF8EAF9FAF65977A
:100D2000A20CB31CC41CD51CA214B304C404D50467
:100D300098F0A216B306C406D50670F46150704050
:100D40008040904065966CAF7DAF8EAF9FAF65974A
:100D5000A20CB31CC41CD51CA21AB30AC40AD50A1F
:100D6000C601B501A40193010E94222B7B018C01D5
:100D7000C601B501A40193010E94222BC901DA0129
:100D80003C014D01C401B30161962CAD3DAD4EADAA
:100D90005FAD61970E94032B9B01AC018701FF248B
:100DA000EE2489AD9AADABADBCADA070B07057016B
:100DB0006801A82AB92ACA2ADB2AA216B306C406E1
:100DC000D506E0F408946108710881089108A20C26
:100DD000B31CC41CD51CA214B304C404D50470F005
:100DE000A216B306C406D50648F408946108710833
:100DF00081089108A20CB31CC41CD51C21968CAD93
:100E00009DADAEADBFAD2197E3960FACE39704C0A7
:100E1000880F991FAA1FBB1F0A94D2F721968CAF87
:100E20009DAFAEAFBFAF2197A21AB30AC40AD50ACD
:100E30006596ECACFDAC0EAD1FAD6597D70199275B
:100E40008827682A792A8A2A9B2A8201222733271F
:100E500069960CAF1DAF2EAF3FAF6997A20191010C
:100E6000407050706D962CAF3DAF4EAF5FAF6D9739
:100E7000C601B50169962CAD3DAD4EAD5FAD69972C
:100E80000E94222B7B018C01C601B50169962CAD15
:100E90003DAD4EAD5FAD69970E94222BC901DA01CD
:100EA000A1968CAF9DAFAEAFBFAFA197BC01CD01F6
:100EB0006D962CAD3DAD4EAD5FAD6D970E94032B91
:100EC0009B01AC018701FF24EE242196ACACBDACA4
:100ED000CEACDFAC2197C601AA27BB27570168011A
:100EE000A82AB92ACA2ADB2AA216B306C406D5063E
:100EF00060F5A1966CAD7DAD8EAD9FADA1976150B3
:100F0000704080409040A1966CAF7DAF8EAF9FAF98
:100F1000A197A20CB31CC41CD51CA214B304C40416
:100F2000D50498F0A216B306C406D50670F4615035
:100F3000704080409040A1966CAF7DAF8EAF9FAF68
:100F4000A197A20CB31CC41CD51CA21AB30AC40AD4
:100F5000D50AC601B50169962CAD3DAD4EAD5FAD6C
:100F600069970E94222B7B018C01C601B50169960D
:100F70002CAD3DAD4EAD5FAD69970E94222BC901EE
:100F8000DA015C016D01C601B5016D962CAD3DAD78
:100F90004EAD5FAD6D970E94032B9B01AC018701A5
:100FA000FF24EE2421968CAD9DADAEADBFAD219753
:100FB000A070B070E82AF92A0A2B1B2BE216F30660
:100FC00004071507C0F40894A108B108C108D108A6
:100FD000E20CF31C041D151DE214F30404051505B1
:100FE00050F0E216F3060407150728F40894A10848
:100FF000B108C108D108A196ECACFDAC0EAD1FAD97
:10100000A197D7019927882796018501082B192BCD
:101010002A2B3B2B25960CAF1DAF2EAF3FAF25974C
:1010200072C26E147F048006910608F45FC220E04D
:10103000E21620E0F20621E0020720E0120788F421
:101040003FEFE316F1040105110531F028F048E007
:1010500050E060E070E017C040E050E060E070E019
:1010600012C040E0E41640E0F40640E0040741E02E
:10107000140728F048E150E060E070E004C040E16F
:1010800050E060E070E0D801C701042E04C0B695BE
:10109000A795979587950A94D2F78D589F4FDC01B5
:1010A0002C9130E2A32EB12CC12CD12CD601C5013C
:1010B000841B950BA60BB70B821B9109A109B109E3
:1010C0000097A105B10599F4E614F7040805190580
:1010D00008F4FEC121966CAC7DAC8EAC9FAC219720
:1010E000621473048404950408F0F2C1FFC1E2960F
:1010F0008FAFE297082E04C0EE0CFF1C001F111FDB
:101100000A94D2F76A2D681BD201C101062E04C0D1
:10111000B695A795979587950A94D2F75C016D01CE
:10112000AE28BF28C02AD12AADAABEAACFAAD8AE5F
:1011300072016101E2960FACE29704C0CC0CDD1C99
:10114000EE1CFF1C0A94D2F7C9AADAAAEBAAFCAAE1
:1011500064015301062E04C0D694C794B794A79493
:101160000A94D2F7D401C301E2960FACE29704C00F
:10117000880F991FAA1FBB1F0A94D2F72196ECACC7
:10118000FDAC0EAD1FAD219704C016950795F794E1
:10119000E7946A95D2F737014801682A792A8A2AA2
:1011A0009B2A6DA67EA68FA698AAEDA8FEA80FA9D9
:1011B00018AD380188249924980187012070307077
:1011C000A5960CAF1DAF2EAF3FAFA597C601B501D9
:1011D000A40193010E94222B7B018C01C601B50161
:1011E000A40193010E94222BC901DA011C012D01E7
:1011F000C201B101A5962CAD3DAD4EAD5FADA59739
:101200000E94032B9B01AC018701FF24EE24ADA4B7
:10121000BEA4CFA4D8A8C601AA27BB27570168013E
:10122000A82AB92ACA2ADB2AA216B306C406D506FA
:1012300000F508942108310841085108EDA8FEA8DE
:101240000FA918ADAE0CBF1CC01ED11EAE14BF043A
:10125000C006D10670F0A216B306C406D50648F43F
:1012600008942108310841085108AE0CBF1CC01E6B
:10127000D11EA21AB30AC40AD50AC601B501A40137
:1012800093010E94222B7B018C01C601B501A401B0
:1012900093010E94222BC901DA013C014D01C401D6
:1012A000B301A5962CAD3DAD4EAD5FADA5970E94A7
:1012B000032B9B01AC018701FF24EE248DA59EA585
:1012C000AFA5B8A9A070B07057016801A82AB92AC3
:1012D000CA2ADB2AA216B306C406D50600F508946E
:1012E00061087108810891086DA97EA98FA998AD40
:1012F000A60EB71EC81ED91EA616B706C806D90662
:1013000070F0A216B306C406D50648F40894610826
:10131000710881089108A60EB71EC81ED91ED601F5
:10132000C501821B930BA40BB50B89A79AA7ABA78A
:10133000BCA7D1019927882764015301A82AB92A9B
:10134000CA2ADB2A2596ACAEBDAECEAEDFAE25975F
:10135000860175012FEF3FEF40E050E0E222F322DB
:1013600004231523A60166277727AD964CAF5DAF02
:101370006EAF7FAFAD97A9A8BAA8CBA8DCA86FEFD6
:101380007FEF80E090E0A622B722C822D92289A967
:101390009AA9ABA9BCA91D0144245524C801B701D1
:1013A000A60195010E94032BA9966CAF7DAF8EAF6D
:1013B0009FAFA997C801B701A20191010E94032B19
:1013C0003B014C01AD966CAD7DAD8EAD9FADAD9743
:1013D000A60195010E94032B7B018C01AD966CAD9B
:1013E0007DAD8EAD9FADAD97A20191010E94032B03
:1013F0005B016C01A8019701260D371D481D591D81
:10140000A9966CAC7DAC8EAC9FACA997C401AA2701
:10141000BB27280F391F4A1F5B1F2E153F054007AA
:10142000510748F4E12CF12C61E0062F112DAE0C90
:10143000BF1CC01ED11ECA01AA27BB27BC01CD01FB
:101440006A0D7B1D8C1D9D1D69A47AA48BA49CA490
:10145000661677068806990650F1661577058805A1
:10146000990509F04DC0D90199278827A9962CAD77
:101470003DAD4EAD5FADA99740705070820F931F88
:10148000A41FB51F21962CAD3DAD4EAD5FAD21978C
:10149000E2960FACE29704C0220F331F441F551F82
:1014A0000A94D2F7281739074A075B0748F52596AB
:1014B0000CAD1DAD2EAD3FAD259701501040204025
:1014C000304025960CAF1DAF2EAF3FAF259718C00B
:1014D00066247724430121E030E040E050E0259687
:1014E0002CAF3DAF4EAF5FAF25970DC0662477247C
:1014F000430125961CAE1DAE1EAE1FAE259703C040
:10150000662477244301FE01B19688E0DF011D9235
:101510008A95E9F72596ACACBDACCEACDFAC25978F
:10152000A9A2BAA2CBA2DCA26DA27EA28FA298A68B
:1015300022962FAD22973AA14BA15CA1662D7EA1E8
:10154000DFA098A5E196ECACFDAC0EAD1FADE19728
:10155000E114F1040105110509F456C0219581E05B
:10156000121608F080E03195E1E0131608F0E0E093
:10157000932E981A81E0391508F080E0E82B419508
:10158000F1E0141608F0F0E0A42EAE1A81E04A153E
:1015900008F080E0F82B5195E1E0151608F0E0E046
:1015A000B52EBF1A81E05B1508F080E0E82B61954D
:1015B000F1E0161608F0F0E0A62FAE1B81E06A17E6
:1015C00008F080E0F82B7195E1E0171608F0E0E0F4
:1015D000C72ECF1A81E07C1508F080E0E82B8D2D16
:1015E0008195F1E0181608F0F0E0D82EDE1AE1E05F
:1015F0008D1508F0E0E0FE2B892F8195392DA5018E
:101600006A2F7C2D982F9F1B8D2DCE58DF4FE2E146
:101610000C94602BA0E0B0E0E0E1FBE00C94442BE4
:10162000DC012B01FA019C91923008F439C1EB01E5
:101630008881823008F433C1943069F4843009F031
:101640002FC111969C9111978981981709F428C18F
:10165000ABE6B0E025C1843009F421C18230A9F4A1
:10166000923009F01DC19A01AD0188E0EA010990AC
:10167000AE01E90109929E018150C1F7E201898121
:1016800011969C918923818308C1923009F407C186
:1016900012962D903C901397EB018A819B811496B2
:1016A000AD90BD90CD90DC901797EC80FD800E81C1
:1016B0001F819101281B390BB90137FF04C0662730
:1016C0007727621B730B603271050CF061C0121634
:1016D00013066CF537014801062E04C096948794D2
:1016E000779467940A94D2F721E030E040E050E02C
:1016F00004C0220F331F441F551F6A95D2F7215093
:101700003040404050402E213F214023512321159D
:1017100031054105510521F021E030E040E050E085
:1017200079018A01E628F728082919293CC0232BCA
:10173000D1F1260E371E35014601062E04C09694BF
:101740008794779467940A94D2F721E030E040E0E0
:1017500050E004C0220F331F441F551F6A95D2F773
:1017600021503040404050402A213B214C215D21F6
:10177000211531054105510521F021E030E040E01F
:1017800050E059016A01A628B728C828D9280BC0FB
:10179000821593052CF01C01AA24BB24650103C00B
:1017A000EE24FF24870111969C91D20111968C9111
:1017B000981709F445C0992339F0A80197012A190F
:1017C0003B094C095D0906C0A60195012E193F0988
:1017D000400B510B57FD08C01182338222822483B3
:1017E0003583468357831DC081E081833382228203
:1017F00088279927DC01821B930BA40BB50B8483EC
:101800009583A683B7830DC0220F331F441F551F36
:101810002483358346835783828193810197938301
:1018200082832481358146815781DA01C90101977C
:10183000A109B1098F5F9F4FAF4FBF4328F30BC082
:10184000918333822282EA0CFB1C0C1D1D1DE48255
:10185000F5820683178383E0808324813581468166
:10186000578157FF1AC0C901AA2797FDA095BA2F23
:1018700081709070A070B0705695479537952795F8
:10188000822B932BA42BB52B84839583A683B783BC
:1018900082819381019693838283DF0101C0D2010B
:1018A000CD01CDB7DEB7E2E10C94602BA0E2B0E051
:1018B000ECE5FCE00C94502B69837A838B839C834A
:1018C0002D833E834F835887E9E0EE2EF12CEC0EFA
:1018D000FD1ECE010196B7010E9445118E010F5EDB
:1018E0001F4FCE010596B8010E9445118A8991E0EB
:1018F00089278A8BC701B801AE01475E5F4F0E94FE
:101900000A0B0E947010A096E6E00C946C2BA0E2EB
:10191000B0E0EDE8FCE00C94502B69837A838B8374
:101920009C832D833E834F835887F9E0EF2EF12C63
:10193000EC0EFD1ECE010196B7010E9445118E01ED
:101940000F5E1F4FCE010596B8010E944511C701D9
:10195000B801AE01475E5F4F0E940A0B0E947010F3
:10196000A096E6E00C946C2BA0E2B0E0EAEBFCE081
:101970000C94442B69837A838B839C832D833E83D1
:101980004F835887CE010196BE01675F7F4F0E944B
:101990004511CE010596BE016F5E7F4F0E94451135
:1019A0009985923088F089898230C8F0943019F492
:1019B000823051F404C0843029F4923081F48BE6F3
:1019C00090E0C6C0923049F420E09A858A89981345
:1019D00021E02A87CE010996BBC0823049F420E07D
:1019E0009A858A89981321E02A8BCE014196B0C04E
:1019F0002D843E844F8458886D887E888F88988C8B
:101A0000EE24FF248701AA24BB24650140E050E0B6
:101A100060E070E0E0E0F0E0C10181709070892B3F
:101A2000E9F0E60CF71C081D191D9A01AB012A0DFF
:101A30003B1D4C1D5D1D80E090E0A0E0B0E0E61491
:101A4000F7040805190520F481E090E0A0E0B0E07B
:101A5000BA01A901480F591F6A1F7B1FAA0CBB1CA2
:101A6000CC1CDD1C97FE08C081E090E0A0E0B0E057
:101A7000A82AB92ACA2ADB2A3196E032F10549F0B0
:101A8000660C771C881C991C5694479437942794AD
:101A9000C3CFFA85EA892B893C898B859C85280FE1
:101AA000391F2E5F3F4F17C0CA0181709070892B7C
:101AB00061F016950795F794E79480E090E0A0E038
:101AC000B0E8E82AF92A0A2B1B2B769567955795DB
:101AD00047952F5F3F4F77FDE7CF0CC0440F551F51
:101AE000661F771F17FD4160EE0CFF1C001F111FC2
:101AF00021503040403090E0590790E0690790E471
:101B0000790760F32B8F3C8FDB01CA018F779070D0
:101B1000A070B07080349105A105B10561F447FD56
:101B20000AC0E114F1040105110529F0405C5F4F82
:101B30006F4F7F4F40781A8EFE1711F081E08A8F29
:101B40004D8F5E8F6F8F78A383E0898FCE0149968A
:101B50000E947010A096E2E10C94602BA8E1B0E026
:101B6000E4EBFDE00C944C2B69837A838B839C839C
:101B70002D833E834F835887B9E0EB2EF12CEC0E7A
:101B8000FD1ECE010196B7010E9445118E010F5E28
:101B90001F4FCE010596B8010E94451129852230BC
:101BA00008F47EC03989323010F4B8017CC08A85CF
:101BB0009A8989278A87243011F0223031F423173B
:101BC00009F06EC06BE670E06EC0343039F41D86EB
:101BD0001E861F86188A1C861B8604C0323021F49C
:101BE00084E08987B7015FC02B853C858B899C8900
:101BF000281B390B3C872B87ED84FE840F851889C1
:101C0000AD88BE88CF88D88CEA14FB040C051D056E
:101C100040F4EE0CFF1C001F111F215030403C8788
:101C20002B8720E030E040E050E080E090E0A0E052
:101C3000B0E460E070E0EA14FB040C051D0540F020
:101C4000282B392B4A2B5B2BEA18FB080C091D09A2
:101C5000B695A79597958795EE0CFF1C001F111F51
:101C60006F5F7F4F6F31710531F7DA01C9018F77EF
:101C70009070A070B07080349105A105B10561F439
:101C800027FD0AC0E114F1040105110529F0205CCB
:101C90003F4F4F4F5F4F20782D873E874F87588BA0
:101CA000BE01675F7F4FCB010E9470106896EAE02B
:101CB0000C94682BA8E1B0E0E0E6FEE00C94502B19
:101CC00069837A838B839C832D833E834F835887DC
:101CD00089E0E82EF12CEC0EFD1ECE010196B70135
:101CE0000E9445118E010F5E1F4FCE010596B8016F
:101CF0000E9445118985823040F08989823028F020
:101D0000C701B8010E94BD1101C08FEF6896E6E0DF
:101D10000C946C2BA8E1B0E0E0E9FEE00C94502BB1
:101D200069837A838B839C832D833E834F8358877B
:101D300089E0E82EF12CEC0EFD1ECE010196B701D4
:101D40000E9445118E010F5E1F4FCE010596B8010E
:101D50000E9445118985823040F08989823028F0BF
:101D6000C701B8010E94BD1101C08FEF6896E6E07F
:101D70000C946C2BA8E1B0E0E0ECFEE00C94502B4E
:101D800069837A838B839C832D833E834F8358871B
:101D900089E0E82EF12CEC0EFD1ECE010196B70174
:101DA0000E9445118E010F5E1F4FCE010596B801AE
:101DB0000E9445118985823040F08989823028F05F
:101DC000C701B8010E94BD1101C081E06896E6E03C
:101DD0000C946C2BA8E0B0E0E0EFFEE00C944D2BEF
:101DE0009B01AC0183E08983DA01C9018827B7FD33
:101DF00083959927AA27BB27B82E211531054105C0
:101E0000510519F482E089833AC08823A9F0203073
:101E100080E0380780E0480780E8580729F460E050
:101E200070E080E09FEC30C0EE24FF248701E21ACE
:101E3000F30A040B150B02C079018A018EE1C82E4A
:101E4000D12CDC82CB82ED82FE820F831887C80101
:101E5000B7010E94211001971816190684F4082E64
:101E600004C0EE0CFF1C001F111F0A94D2F7ED8274
:101E7000FE820F831887C81AD90ADC82CB82BA8205
:101E8000CE0101960E9470102896E9E00C94692B0F
:101E9000ACE0B0E0EEE4FFE00C94542B69837A836D
:101EA0008B839C83CE010196BE016B5F7F4F0E94A6
:101EB00045118D81823061F1823050F1843021F4FE
:101EC0008E81882351F12EC02F81388537FD20C0A7
:101ED0006E812F3131051CF06623F9F023C08EE1AD
:101EE00090E0821B930B29853A854B855C8504C065
:101EF00056954795379527958A95D2F76623B1F081
:101F000050954095309521953F4F4F4F5F4F0EC0F4
:101F100020E030E040E050E009C02FEF3FEF4FEF0E
:101F20005FE704C020E030E040E050E8B901CA01BA
:101F30002C96E2E00C94702BEF92FF920F93DF93BC
:101F4000CF93CDB7DEB760970FB6F894DEBF0FBE64
:101F5000CDBFA82F002309F467C07E010894E11CBF
:101F6000F11C88E0F70111928A95E9F729833A83F9
:101F70004B835C836D837E83AF83988780E2801B75
:101F80004D815E816F817885E82FFF27E7FDF09511
:101F90001816B4F0DB01CA01BB0F880B982FDC01C7
:101FA0008D879E87AF87B88B882799278E1B9F0BBD
:101FB00004C075956795579547958A95D2F728C0BF
:101FC000202F332727FD3095DB01CA01022E04C0E4
:101FD000B595A795979587950A94D2F78D879E8793
:101FE000AF87B88B04C0440F551F661F771FEA9553
:101FF000D2F789819A81AB81BC8104C0B695A7953F
:10200000979587952A95D2F7482B592B6A2B7B2BCE
:1020100049875A876B877C8729853A854B855C85FC
:102020006D857E85AF8598898A2F60960FB6F89466
:10203000DEBF0FBECDBFCF91DF910F91FF90EF902C
:102040000895EF92FF920F931F937B018C0180E024
:10205000E81680E0F80681E0080780E0180788F4B9
:102060008FEFE816F1040105110531F028F088E042
:1020700090E0A0E0B0E017C080E090E0A0E0B0E029
:1020800012C080E0E81680E0F80680E0080781E0F2
:10209000180728F088E190E0A0E0B0E004C080E1FB
:1020A00090E0A0E0B0E020E230E040E050E0281B0B
:1020B000390B4A0B5B0B04C016950795F794E79410
:1020C0008A95D2F7F701ED58FF4F8081281B31091F
:1020D00041095109C9011F910F91FF90EF90089597
:1020E000DF92EF92FF920F931F93FC01E480F58043
:1020F00006811781D1808081823048F480E090E0B1
:10210000A0E1B0E0E82AF92A0A2B1B2BA5C08430F5
:1021100009F49FC0823021F4EE24FF24870105C01A
:10212000E114F1040105110519F4E0E0F0E096C0B6
:10213000628173819FEF623879070CF05BC022E8FF
:102140003FEF261B370B2A3131052CF020E030E021
:1021500040E050E02AC0B801A701022E04C07695E5
:102160006795579547950A94D2F781E090E0A0E0F3
:10217000B0E004C0880F991FAA1FBB1F2A95D2F791
:102180000197A109B1098E219F21A023B1230097B6
:10219000A105B10521F081E090E0A0E0B0E09A0156
:1021A000AB01282B392B4A2B5B2BDA01C9018F7726
:1021B0009070A070B07080349105A105B10539F41C
:1021C00027FF09C0205C3F4F4F4F5F4F04C0215C89
:1021D0003F4F4F4F5F4FE0E0F0E02030A0E03A0784
:1021E000A0E04A07A0E45A0710F0E1E0F0E079012E
:1021F0008A0127C06038710564F5FB01E158FF4F83
:10220000D801C7018F779070A070B07080349105AD
:10221000A105B10539F4E7FE0DC080E490E0A0E02F
:10222000B0E004C08FE390E0A0E0B0E0E80EF91E5B
:102230000A1F1B1F17FF05C016950795F794E79413
:10224000319687E016950795F794E7948A95D1F72C
:1022500005C0EE24FF248701EFEFF0E06E2F6795B5
:1022600066276795902F9F77D794DD24D7948E2F7C
:102270008695492F462B582F5D29B701CA011F911A
:102280000F91FF90EF90DF900895FC01DB014081FA
:1022900051812281622F6F7770E0221F2227221F37
:1022A0009381892F880F822B282F30E0991F99273F
:1022B000991F11969C93119721153105A9F5411588
:1022C00051056105710511F482E037C082E89FEF86
:1022D00013969C938E9312979A01AB0167E0220F9D
:1022E000331F441F551F6A95D1F783E08C930DC0AF
:1022F000220F331F441F551F12968D919C911397E7
:10230000019713969C938E931297203080E03807A4
:1023100080E0480780E4580758F314962D933D93C6
:102320004D935C93179708952F3F310579F441152C
:1023300051056105710519F484E08C93089564FFDB
:1023400003C081E08C9312C01C9210C02F57304004
:1023500013963C932E93129783E08C9387E0440F5F
:10236000551F661F771F8A95D1F7706414964D9399
:102370005D936D937C93179708951F93DC01FB0188
:102380009C91923008F447C08081823008F443C0A9
:10239000943051F411961C91843099F58181682F05
:1023A00070E0611B71093FC0843021F0923031F43C
:1023B0008230B9F18181882389F12DC011961C9159
:1023C00011978230F1F081811817D9F412962D916E
:1023D0003C911397828193818217930794F0281779
:1023E0003907BCF014968D919D910D90BC91A02D54
:1023F0002481358146815781281739074A075B07B1
:1024000018F4112341F00AC082179307A407B507F7
:1024100040F4112319F061E070E005C06FEF7FEF29
:1024200002C060E070E0CB011F9108952F923F92AF
:102430004F925F926F927F928F929F92AF92BF92D4
:10244000CF92DF92EF92FF920F931F93DF93CF9380
:10245000CDB7DEB7C556D0400FB6F894DEBF0FBE7D
:10246000CDBF98878F837A8769874B8780E090E01C
:10247000A0E0B0E08B839C83AD83BE8319821A8277
:102480001BC08A81282F30E089859A85FC01E20FE4
:10249000F31F80818B3259F08A81282F30E08985A3
:1024A0009A85FC01E20FF31F80818D3211F481E0E7
:1024B00089838A818F5F8A839A818B85981708F335
:1024C0008981813009F06CC11A8265C18A81282F07
:1024D00030E089859A85FC01E20FF31F80818A3202
:1024E00009F0A6C08A81882F90E09C01220F331F3B
:1024F000220F331F220F331F8F819885AC01420FAB
:10250000531F5FA74EA78A81882F90E09C01220F5E
:10251000331F220F331F220F331F8F819885FC0139
:10252000E20FF31FA080B180C280D380E480F580E9
:10253000068117818A81882F90E001969C01220FE5
:10254000331F220F331F220F331F8F819885FC0109
:10255000E20FF31F208031804280538064807580B9
:10256000868097802A2D3B2D4C2D5D2D6E2D7F2D45
:10257000802F912FA22CB32CC42CD52CE62CF72C19
:10258000082D192D0E944100A22EB32EC42ED52E47
:10259000E62EF72E082F192F2A2D3B2D4C2D5D2DC1
:1025A0006E2D7F2D802F912FEEA5FFA52083EEA508
:1025B000FFA53183EEA5FFA54283EEA5FFA55383BA
:1025C000EEA5FFA56483EEA5FFA57583EEA5FFA587
:1025D0008683EEA5FFA597838A81882309F0D8C05A
:1025E0008A81882F90E09C01220F331F220F331F16
:1025F000220F331F8F819885FC01E20FF31FA0800B
:10260000B180C280D380E480F580068117812A2DB5
:102610003B2D4C2D5D2D6E2D7F2D802F912F0E94F7
:10262000E701DC01CB018B839C83AD83BE83B0C00B
:102630008A81282F30E089859A85FC01E20FF31FFB
:1026400080818F3209F0A4C08A81882F90E09C019C
:10265000220F331F220F331F220F331F8F819885C4
:10266000AC01420F531F5DA74CA78A81882F90E0D1
:102670009C01220F331F220F331F220F331F8F8124
:102680009885FC01E20FF31FA080B180C280D38047
:10269000E480F580068117818A81882F90E0019679
:1026A0009C01220F331F220F331F220F331F8F81F4
:1026B0009885FC01E20FF31F208031804280538017
:1026C00064807580868097802A2D3B2D4C2D5D2D52
:1026D0006E2D7F2D802F912FA22CB32CC42CD52CA6
:1026E000E62CF72C082D192D0E94E202A22EB32E03
:1026F000C42ED52EE62EF72E082F192F2A2D3B2D6E
:102700004C2D5D2D6E2D7F2D802F912FECA5FDA5DD
:102710002083ECA5FDA53183ECA5FDA54283ECA5A6
:10272000FDA55383ECA5FDA56483ECA5FDA57583EC
:10273000ECA5FDA58683ECA5FDA597838A8188235A
:1027400039F58A81882F90E09C01220F331F220FD8
:10275000331F220F331F8F819885FC01E20FF31F77
:10276000A080B180C280D380E480F580068117818B
:102770002A2D3B2D4C2D5D2D6E2D7F2D802F912FE1
:102780000E94E701DC01CB018B839C83AD83BE8378
:102790008A818F5F8A839A818B85981708F496CEF9
:1027A0001A8221C58A81282F30E089859A85FC010B
:1027B000E20FF31F80818B3209F096C18A81882352
:1027C00009F061C18A81882F90E09C01220F331F9C
:1027D000220F331F220F331F8F819885FC01E20FD8
:1027E000F31F40814CA351815DA382818EA393810D
:1027F0009FA3448148A7558159A786818AA79781BD
:102800009BA78A81882F90E001969C01220F331F9D
:10281000220F331F220F331F8F819885FC01E20F97
:10282000F31F40814C8F51815D8F82818E8F938108
:102830009F8F448148A3558159A386818AA397819C
:102840009BA3ECA1FC8DEF0FE8AB41E048AF58A98A
:102850008CA1581708F018AE9DA1ED8D9E0F99AB75
:10286000F1E0F9AF49A95DA1451708F019AE88ADAF
:1028700099A9890F8AAFE1E0EBAFFAAD49A9F41746
:1028800008F01BAE59AD8BAD582B59AF9AAD99AB33
:10289000EEA1FE8DEF0FEAAB41E04CAF5AA98EA13D
:1028A000581708F01CAE99ADEAA99E0F9DAFF1E054
:1028B000FEAF4DAD5AA9451708F01EAE8CAD9EADCA
:1028C000892B8CAFEDADEAABFFA14F8DF40FFBABC5
:1028D00051E05FAF8BA99FA1891708F01FAEECAD47
:1028E000FBA9EF0F2196EFAF219741E022964FAF62
:1028F000229721965FAD21978BA9581718F0229641
:102900001FAE22979FAD2296EFAD22979E2B9FAFD1
:102910002196FFAD2197FBAB48A558A1450F4CABC5
:1029200081E023968FAF23979CA9E8A59E1718F006
:1029300023961FAE2397FFAD4CA9F40F2496FFAF4B
:10294000249751E025965FAF259724968FAD249765
:102950009CA9891718F025961FAE25972396EFADF1
:1029600023972596FFAD2597EF2B2396EFAF23975F
:1029700024964FAD24974CAB59A589A1580F5DAB58
:1029800091E026969FAF2697EDA9F9A5EF1718F0CD
:1029900026961FAE269723964FAD23975DA9450F28
:1029A00027964FAF279781E028968FAF28972796D5
:1029B0009FAD2797EDA99E1718F028961FAE289770
:1029C0002696FFAD269728964FAD2897F42B26968E
:1029D000FFAF269727965FAD27975DAB8AA59AA193
:1029E000890F8EABE1E02996EFAF2997FEA94AA5A2
:1029F000F41718F029961FAE299726965FAD2697F3
:102A00008EA9580F2A965FAF2A9791E02B969FAF19
:102A10002B972A96EFAD2A97FEA9EF1718F02B9661
:102A20001FAE2B9729964FAD29972B965FAD2B970D
:102A3000452B29964FAF29972A968FAD2A978EABB3
:102A40009BA5EBA19E0F9FAB29968FAD2997FFA960
:102A50008F0F8FABA8A8B9A8CAA8DBA8ECA8FDA8BF
:102A60000EA91FA92A2D3B2D4C2D5D2D6E2D7F2DDE
:102A7000802F912F0E94E701DC01CB018B839C8387
:102A8000AD83BE8364C28A81882F90E001969C0149
:102A9000220F331F220F331F220F331F8F81988580
:102AA000FC01E20FF31FA080B180C280D380E480DC
:102AB000F580068117812A2D3B2D4C2D5D2D6E2D25
:102AC0007F2D802F912F0E94E7019B01AC016B812C
:102AD0007C818D819E810E94870CDC01CB018B83E0
:102AE0009C83AD83BE8333C28A81282F30E08985E1
:102AF0009A85FC01E20FF31F80818D3209F027C215
:102B00008A81882309F0F3C18A81882F90E09C0193
:102B1000220F331F220F331F220F331F8F819885FF
:102B2000FC01E20FF31F40814C8B51815D8B828150
:102B30008E8B93819F8B4481488F5581598F8681DD
:102B40008A8F97819B8F8A81882F90E001969C01C4
:102B5000220F331F220F331F220F331F8F819885BF
:102B6000FC01E20FF31F40814C8751815D87828118
:102B70008E8793819F874481488B5581598B8681AD
:102B80008A8B97819B8BEC89FC85EF1B2C96EFAF92
:102B90002C9741E064964FAF64972C965FAD2C97CD
:102BA0008C89851718F064961FAE64979D89ED8512
:102BB0009E1B2D969FAF2D97F1E06596FFAF659711
:102BC0002D964FAD2D975D89541718F065961FAE61
:102BD00065972D968FAD2D9764969FAD6497891B51
:102BE00066968FAF6697E1E06796EFAF6797669658
:102BF000FFAD66972D964FAD2D974F1718F067963E
:102C00001FAE679765965FAD659767968FAD6797BF
:102C1000582B65965FAF659766969FAD66972D9624
:102C20009FAF2D97EE89FE85EF1B2E96EFAF2E9767
:102C300041E068964FAF68972E965FAD2E978E89CC
:102C4000851718F068961FAE68972E969FAD2E9741
:102C50006596EFAD65979E1B69969FAF6997F1E00A
:102C60006A96FFAF6A9769964FAD69972E965FADEA
:102C70002E97541718F06A961FAE6A9768968FAD14
:102C800068976A969FAD6A97892B68968FAF689709
:102C90006996EFAD69972E96EFAF2E97FF894F8516
:102CA000F41B2F96FFAF2F9751E06B965FAF6B979A
:102CB0002F968FAD2F979F89981718F06B961FAEA0
:102CC0006B972F96EFAD2F976896FFAD6897EF1B28
:102CD0006C96EFAF6C9741E06D964FAF6D976C9629
:102CE0005FAD6C972F968FAD2F97851718F06D9667
:102CF0001FAE6D976B969FAD6B976D96EFAD6D9711
:102D00009E2B6B969FAF6B976C96FFAD6C972F9633
:102D1000FFAF2F97488D5889451B60964FAF60973E
:102D200081E06E968FAF6E9760969FAD6097E88D4D
:102D3000E91718F06E961FAE6E976096FFAD60971C
:102D40006B964FAD6B97F41B6F96FFAF6F9751E08B
:102D5000A0965FAFA0976F968FAD6F9760969FAD6F
:102D60006097981718F0A0961FAEA0976E96EFADDB
:102D70006E97A096FFADA097EF2B6E96EFAF6E9774
:102D80006F964FAD6F9760964FAF6097598D898959
:102D9000581B61965FAF619791E0A1969FAFA19795
:102DA0006196EFAD6197F98DFE1718F0A1961FAEF1
:102DB000A19761964FAD61976E965FAD6E97451B7B
:102DC000A2964FAFA29781E0A3968FAFA397A2964A
:102DD0009FADA2976196EFAD6197E91718F0A396A2
:102DE0001FAEA397A196FFADA197A3964FADA39752
:102DF000F42BA196FFAFA197A2965FADA297619623
:102E00005FAF61978A8D9A89891B62968FAF6297AF
:102E1000E1E0A496EFAFA4976296FFAD62974A8D6A
:102E20004F1718F0A4961FAEA49762965FAD6297F5
:102E3000A1968FADA197581BA5965FAFA59791E07E
:102E4000A6969FAFA697A596EFADA5976296FFAD04
:102E50006297FE1718F0A6961FAEA697A4964FADE0
:102E6000A497A6965FADA697452BA4964FAFA497BF
:102E7000A5968FADA59762968FAF62979B8DEB89D4
:102E80009E1B63969FAF639763968FAD6397A496DF
:102E9000FFADA4978F1B63968FAF63972C96AFAC53
:102EA0002C972D96BFAC2D972E96CFAC2E972F96A4
:102EB000DFAC2F976096EFAC60976196FFAC61979F
:102EC00062960FAD629763961FAD63972A2D3B2DD7
:102ED0004C2D5D2D6E2D7F2D802F912F0E94E701AF
:102EE000DC01CB018B839C83AD83BE8330C08A81A0
:102EF000882F90E001969C01220F331F220F331F71
:102F0000220F331F8F819885FC01E20FF31FA080F1
:102F1000B180C280D380E480F580068117812A2D9C
:102F20003B2D4C2D5D2D6E2D7F2D802F912F0E94DE
:102F3000E7019B01AC016B817C818D819E810E94A8
:102F4000560CDC01CB018B839C83AD83BE838981CE
:102F5000882309F045C18A81282F30E089859A8528
:102F6000FC01E20FF31F80818A3209F097C08A8149
:102F7000882309F062C08A81882F90E09C01220F8B
:102F8000331F220F331F220F331F8F819885FC01BF
:102F9000E20FF31FA080B180C280D380E480F5806F
:102FA000068117818A81882F90E001969C01220F6B
:102FB000331F220F331F220F331F8F819885FC018F
:102FC000E20FF31F2080318042805380648075803F
:102FD000868097802A2D3B2D4C2D5D2D6E2D7F2DCB
:102FE000802F912FA22CB32CC42CD52CE62CF72C9F
:102FF000082D192D0E944100222E332E442E552ECD
:10300000662E772E882E992EA22CB32CC42CD52C6C
:10301000E62CF72C082D192D2A2D3B2D4C2D5D2D3E
:103020006E2D7F2D802F912F0E94E701DC01CB01B7
:103030008B839C83AD83BE83D3C08A81882F90E02D
:1030400001969C01220F331F220F331F220F331FC3
:103050008F819885FC01E20FF31FA080B180C280B0
:10306000D380E480F580068117812A2D3B2D4C2DDD
:103070005D2D6E2D7F2D802F912F0E94E7019B01EA
:10308000AC016B817C818D819E810E94B40CDC013E
:10309000CB018B839C83AD83BE83A2C08A81282F02
:1030A00030E089859A85FC01E20FF31F80818F3221
:1030B00009F096C08A81882309F062C08A81882F2E
:1030C00090E09C01220F331F220F331F220F331F6A
:1030D0008F819885FC01E20FF31FA080B180C28030
:1030E000D380E480F580068117818A81882F90E063
:1030F00001969C01220F331F220F331F220F331F13
:103100008F819885FC01E20FF31F2080318042807F
:10311000538064807580868097802A2D3B2D4C2DAE
:103120005D2D6E2D7F2D802F912FA22CB32CC42CC2
:10313000D52CE62CF72C082D192D0E94E202222E08
:10314000332E442E552E662E772E882E992EA22CA5
:10315000B32CC42CD52CE62CF72C082D192D2A2D98
:103160003B2D4C2D5D2D6E2D7F2D802F912F0E949C
:10317000E701DC01CB018B839C83AD83BE8330C030
:103180008A81882F90E001969C01220F331F220F25
:10319000331F220F331F8F819885FC01E20FF31F2D
:1031A000A080B180C280D380E480F5800681178141
:1031B0002A2D3B2D4C2D5D2D6E2D7F2D802F912F97
:1031C0000E94E7019B01AC016B817C818D819E8116
:1031D0000E94AE0DDC01CB018B839C83AD83BE834B
:1031E0008A818F5F8A839A818B85981708F4DACA5F
:1031F0008B819C81AD81BE81BC01CD01CB59DF4F5C
:103200000FB6F894DEBF0FBECDBFCF91DF911F91F7
:103210000F91FF90EF90DF90CF90BF90AF909F9075
:103220008F907F906F905F904F903F902F90089578
:10323000AF92BF92CF92DF92EF92FF920F931F93C4
:10324000DF93CF93CDB7DEB7CF5BD0400FB6F89406
:10325000DEBF0FBECDBF18A21F8E81E08E8F0E94F1
:10326000D82520E630E080E063E0A9010E94BD2A75
:1032700080E090E0AAE7B4E4898F9A8FAB8FBC8F8F
:10328000698D7A8D8B8D9C8D20E030E04AE753E488
:103290000E94B40CDC01CB018D8B9E8BAF8BB88F61
:1032A0006D897E898F89988D20E030E040E85FE36A
:1032B0000E94BA0E88232CF481E090E09C8B8B8BCB
:1032C0003FC06D897E898F89988D20E03FEF4FE761
:1032D00057E40E945A0E18164CF5698D7A8D8B8D25
:1032E0009C8D20E030E040E251E40E94B40CDC010F
:1032F000CB01BC01CD010E94BB01DC01CB019C8B49
:103300008B8B0FC089E190E09A8B898B89899A8990
:103310000197F1F79A8B898B8B899C8901979C8BFC
:103320008B8B8B899C89009769F714C06D897E8986
:103330008F89988D0E94BB01DC01CB019C8B8B8B0C
:103340008B899C89988B8F878F8598890197F1F756
:10335000988B8F870E94F92A0E9447248D8F8D8D2C
:103360008D3041F40E94F92A8FEF88A31F8E81E0EF
:103370008E8FD9C68D8D8D33D9F481E060E00E94A7
:103380007B2A8DE30E946328CE0181969E012F59EE
:103390003F4FB90148A10E941612DC01CB01BC01CC
:1033A000CD010E94480FDC01CB010E94D62ABBC68A
:1033B0008D8D8B3249F08D8D8D3231F08D8D8A322D
:1033C00019F08D8D8F32C1F480E068A10E947B2AB4
:1033D0008D8D0E9463288F8D282F30E0CE018F596C
:1033E0009F4FFC01E20FF31F8D8D808381E08E8F54
:1033F0008F8D8F5F8F8F97C68D8D8A3008F093C623
:1034000080E068A10E947B2A8D8D882F90E00E9429
:10341000D62A8E8D813011F58F8DE82FF0E08D8DBD
:10342000282F30E040E050E060E070E080E090E085
:10343000DF01AA0FBB1FAA0FBB1FAA0FBB1FFE01F4
:103440003196EA0FFB1FB09620833183428353836A
:1034500064837583868397831E8E65C68F8D082F40
:1034600010E0EA961FAF0EAFEA978F8D882F90E09D
:103470009C01220F331F220F331F220F331FCE0157
:103480000196820F931FFC01B09620813181428109
:1034900053816481758186819781A22EB32EC42EBB
:1034A000D52EE62EF72E082F192F2A2D3B2D4C2D29
:1034B0005D2D6E2D7F2D802F912F01E00E943C010C
:1034C000EB962FAFEB97EC963FAFEC97ED964FAFA7
:1034D000ED97EE965FAFEE97EF966FAFEF97C1580F
:1034E000DF4F7883CF57D040C058DF4F8883C05814
:1034F000D040CF57DF4F9883C158D040EB962FADC7
:10350000EB97EC963FADEC97ED964FADED97EE96C1
:103510005FADEE97EF966FADEF97C158DF4F7881B3
:10352000CF57D040C058DF4F8881C058D040CF57C8
:10353000DF4F9881C158D04002E00E943C01CE5735
:10354000DF4F2883C258D040CD57DF4F3883C35850
:10355000D040CC57DF4F4883C458D040CB57DF4FC3
:103560005883C558D040CA57DF4F6883C658D040EB
:10357000C957DF4F7883C758D040C857DF4F88837B
:10358000C858D040C757DF4F9883C958D040EB96F2
:103590001FADEB97CE57DF4F2881C258D040120F96
:1035A000C657DF4F1883CA58D04031E0CE56DF4FA0
:1035B0003883C259D040C657DF4F4881CA58D040DF
:1035C000EB965FADEB97451728F0CE56DF4F18828C
:1035D000C259D040EC966FADEC97CD57DF4F788154
:1035E000C358D040670FC557DF4F6883CB58D040D2
:1035F00081E0CD56DF4F8883C359D040C557DF4F98
:103600009881CB58D040EC960FADEC97901728F0EE
:10361000CD56DF4F1882C359D040CE56DF4F1881A8
:10362000C259D040C557DF4F2881CB58D040120F28
:10363000CC56DF4F1883C459D04031E0CB56DF4F12
:103640003883C559D040CC56DF4F4881C459D0404B
:10365000C557DF4F5881CB58D040451728F0CB567F
:10366000DF4F1882C559D040CD56DF4F6881C3590E
:10367000D040CB56DF4F7881C559D040672BCD560F
:10368000DF4F6883C359D040CC56DF4F8881C4597F
:10369000D040C557DF4F8883CB58D040ED969FADC3
:1036A000ED97CC57DF4F0881C458D040900FC457D6
:1036B000DF4F9883CC58D04011E0CA56DF4F1883B3
:1036C000C659D040C457DF4F2881CC58D040ED9622
:1036D0003FADED97231728F0CA56DF4F1882C65921
:1036E000D040CD56DF4F4881C359D040C457DF4F3B
:1036F0005881CC58D040450FC956DF4F4883C75931
:10370000D04061E0C856DF4F6883C859D040C956E1
:10371000DF4F7881C759D040C457DF4F8881CC58DC
:10372000D040781728F0C856DF4F1882C859D040CB
:10373000CA56DF4F9881C659D040C856DF4F08811E
:10374000C859D040902BCA56DF4F9883C659D040F5
:10375000C956DF4F1881C759D040C457DF4F18836F
:10376000CC58D040EE962FADEE97CB57DF4F388137
:10377000C558D040230FC357DF4F2883CD58D040C2
:1037800041E0C756DF4F4883C959D040C357DF4F88
:103790005881CD58D040EE966FADEE97561728F071
:1037A000C756DF4F1882C959D040CA56DF4F7881BB
:1037B000C659D040C357DF4F8881CD58D040780FCD
:1037C000C656DF4F7883CA59D04091E0C556DF4FC7
:1037D0009883CB59D040C656DF4F0881CA59D04094
:1037E000C357DF4F1881CD58D040011728F0C55678
:1037F000DF4F1882CB59D040C756DF4F2881C959B7
:10380000D040C556DF4F3881CB59D040232BC75607
:10381000DF4F2883C959D040C656DF4F4881CA5967
:10382000D040C357DF4F4883CD58D040EF965FADAF
:10383000EF97CA57DF4F6881C658D040560FC2571E
:10384000DF4F5883CE58D04071E0C456DF4F7883A5
:10385000CC59D040C257DF4F8881CE58D040EF9628
:103860009FADEF97891728F0C456DF4F1882CC59C7
:10387000D040C756DF4F0881C959D040C257DF4FEB
:103880001881CE58D040010FC356DF4F0883CD5961
:10389000D04021E0C256DF4F2883CE59D040C356D6
:1038A000DF4F3881CD59D040C257DF4F4881CE58C5
:1038B000D040341728F0C256DF4F1882CE59D0407E
:1038C000C456DF4F5881CC59D040C256DF4F688173
:1038D000CE59D040562BC456DF4F5883CC59D040D8
:1038E000C356DF4F7881CD59D040C257DF4F788320
:1038F000CE58D040C158DF4F8881CF57D040C957EC
:10390000DF4F9881C758D040890FC157DF4F888358
:10391000CF58D04001E0C156DF4F0883CF59D04087
:10392000C157DF4F1881CF58D040C158DF4F288191
:10393000CF57D040121728F0C156DF4F1882CF5909
:10394000D040C456DF4F3881CC59D040C157DF4FEB
:103950004881CF58D040340FC056DF4F3883C05A0B
:10396000D04051E0CF55DF4F5883C15AD040C056A8
:10397000DF4F6881C05AD040C157DF4F7881CF58A0
:10398000D040671728F0CF55DF4F1882C15AD0407A
:10399000C156DF4F8881CF59D040CF55DF4F988136
:1039A000C15AD040892BC156DF4F8883CF59D040B0
:1039B000C056DF4F0881C05AD040C157DF4F08833F
:1039C000CF58D040C058DF4F1881C058D040C8579A
:1039D000DF4F2881C858D040120FC057DF4F1883DF
:1039E000C059D04031E0CE55DF4F3883C25AD04065
:1039F000C057DF4F4881C059D040C058DF4F588171
:103A0000C058D040451728F0CE55DF4F1882C25A13
:103A1000D040C156DF4F6881CF59D040C057DF4FEB
:103A20007881C059D040670FCD55DF4F6883C35AA6
:103A3000D04081E0CC55DF4F8883C45AD040CD556B
:103A4000DF4F9881C35AD040C057DF4F0881C0591B
:103A5000D040901728F0CC55DF4F1882C45AD04080
:103A6000CE55DF4F1881C25AD040CC55DF4F288148
:103A7000C45AD040122BCE55DF4F1883C25AD040C3
:103A8000CD55DF4F3881C35AD040C057DF4F388300
:103A9000C059D040CF57DF4F4881C158D040C75799
:103AA000DF4F5881C958D040450FCF56DF4F48836C
:103AB000C159D040CE55DF4F8881C25AD040CF5631
:103AC000DF4F6881C159D040860FCF56DF4F8883C2
:103AD000C159D040C657DF4F7881CA58D040E196CF
:103AE0007FAFE197C557DF4F8881CB58D040E29632
:103AF0008FAFE297C457DF4F9881CC58D040E39600
:103B00009FAFE397C357DF4F0881CD58D040E4966D
:103B10000FAFE497C257DF4F1881CE58D040E596DB
:103B20001FAFE597C157DF4F2881CF58D040E696A9
:103B30002FAFE697C057DF4F3881C059D040E79686
:103B40003FAFE797CF56DF4F4881C159D040E89645
:103B50004FAFE8978D8D082F10E020E030E040E077
:103B600050E060E070E0A9960FAFA997AA961FAF4A
:103B7000AA97AB962FAFAB97AC963FAFAC97AD96ED
:103B80004FAFAD97AE965FAFAE97AF966FAFAF97B3
:103B9000E0967FAFE097E1961FADE197A9962FAD34
:103BA000A997120FCB55DF4F1883C55AD04031E08B
:103BB000C355DF4F3883CD5AD040CB55DF4F4881B6
:103BC000C55AD040E1965FADE197451728F0C3553F
:103BD000DF4F1882CD5AD040E2966FADE297AA9699
:103BE0007FADAA97670FCA55DF4F6883C65AD0408A
:103BF00081E0C255DF4F8883CE5AD040CA55DF4F8F
:103C00009881C65AD040E2960FADE297901728F0FF
:103C1000C255DF4F1882CE5AD040C355DF4F1881AE
:103C2000CD5AD040CA55DF4F2881C65AD040120F16
:103C3000C155DF4F1883CF5AD04031E0C055DF4F18
:103C40003883C05BD040C155DF4F4881CF5AD04048
:103C5000CA55DF4F5881C65AD040451728F0C05585
:103C6000DF4F1882C05BD040C255DF4F6881CE5A0B
:103C7000D040C055DF4F7881C05BD040672BC25524
:103C8000DF4F6883CE5AD040C155DF4F8881CF5A6D
:103C9000D040CA55DF4F8883C65AD040E3969FADC7
:103CA000E397AB960FADAB97900FC955DF4F988355
:103CB000C75AD04011E0CF54DF4F1883C15BD040CA
:103CC000C955DF4F2881C75AD040E3963FADE397EF
:103CD000231728F0CF54DF4F1882C15BD040C25564
:103CE000DF4F4881CE5AD040C955DF4F5881C75A5F
:103CF000D040450FCE54DF4F4883C25BD04061E0D7
:103D0000CD54DF4F6883C35BD040CE54DF4F788102
:103D1000C25BD040C955DF4F8881C75AD040781761
:103D200028F0CD54DF4F1882C35BD040CF54DF4F13
:103D30009881C15BD040CD54DF4F0881C35BD04038
:103D4000902BCF54DF4F9883C15BD040CE54DF4FD0
:103D50001881C25BD040C955DF4F1883C75AD04085
:103D6000E4962FADE497AC963FADAC97230FC855C2
:103D7000DF4F2883C85AD04041E0CC54DF4F4883FE
:103D8000C45BD040C855DF4F5881C85AD040E49634
:103D90006FADE497561728F0CC54DF4F1882C45B00
:103DA000D040CF54DF4F7881C15BD040C855DF4F42
:103DB0008881C85AD040780FCB54DF4F7883C55BD9
:103DC000D04091E0CA54DF4F9883C65BD040CB54BB
:103DD000DF4F0881C55BD040C855DF4F1881C85AF6
:103DE000D040011728F0CA54DF4F1882C65BD0407C
:103DF000CC54DF4F2881C45BD040CA54DF4F388198
:103E0000C65BD040232BCC54DF4F2883C45BD0400B
:103E1000CB54DF4F4881C55BD040C855DF4F488346
:103E2000C85AD040E5965FADE597AD966FADAD97BA
:103E3000560FC755DF4F5883C95AD04071E0C95457
:103E4000DF4F7883C75BD040C755DF4F8881C95AA1
:103E5000D040E5969FADE597891728F0C954DF4F0C
:103E60001882C75BD040CC54DF4F0881C45BD04080
:103E7000C755DF4F1881C95AD040010FC854DF4FD2
:103E80000883C85BD04021E0C754DF4F2883C95B5B
:103E9000D040C854DF4F3881C85BD040C755DF4F92
:103EA0004881C95AD040341728F0C754DF4F1882D0
:103EB000C95BD040C954DF4F5881C75BD040C7545D
:103EC000DF4F6881C95BD040562BC954DF4F588300
:103ED000C75BD040C854DF4F7881C85BD040C7551E
:103EE000DF4F7883C95AD040E6968FADE697AE96FD
:103EF0009FADAE97890FC655DF4F8883CA5AD04011
:103F000001E0C654DF4F0883CA5BD040C655DF4F7F
:103F10001881CA5AD040E6962FADE697121728F0BE
:103F2000C654DF4F1882CA5BD040C954DF4F388176
:103F3000C75BD040C655DF4F4881CA5AD040340FC6
:103F4000C554DF4F3883CB5BD04051E0C454DF4FC2
:103F50005883CC5BD040C554DF4F6881CB5BD040E9
:103F6000C655DF4F7881CA5AD040671728F0C4542D
:103F7000DF4F1882CC5BD040C654DF4F8881CA5BCC
:103F8000D040C454DF4F9881CC5BD040892BC654BD
:103F9000DF4F8883CA5BD040C554DF4F0881CB5BBD
:103FA000D040C655DF4F0883CA5AD040E7961FADB0
:103FB000E797AF962FADAF97120FC555DF4F188318
:103FC000CB5AD04031E0C354DF4F3883CD5BD04073
:103FD000C555DF4F4881CB5AD040E7965FADE79794
:103FE000451728F0C354DF4F1882CD5BD040C6542C
:103FF000DF4F6881CA5BD040C555DF4F7881CB5A0F
:10400000D040670FC254DF4F6883CE5BD04081E061
:10401000C154DF4F8883CF5BD040C254DF4F9881BB
:10402000CE5BD040C555DF4F0881CB5AD0409017AA
:1040300028F0C154DF4F1882CF5BD040C354DF4F0C
:104040001881CD5BD040C154DF4F2881CF5BD04079
:10405000122BC354DF4F1883CD5BD040C254DF4FC7
:104060003881CE5BD040C555DF4F3883CB5AD04026
:10407000E8964FADE897E0965FADE097450FC455E1
:10408000DF4F4883CC5AD040C354DF4F8881CD5B8B
:10409000D040C455DF4F6881CC5AD040860FC455FC
:1040A000DF4F8883CC5AD040CB55DF4F2881C55A8B
:1040B000D040CA55DF4F3881C65AD040C955DF4F6E
:1040C0004881C75AD040C855DF4F5881C85AD040A0
:1040D000C755DF4F6881C95AD040C655DF4F788138
:1040E000CA5AD040C555DF4F8881CB5AD040C455FD
:1040F000DF4F9881CC5AD040EA96AEADBFADEA977B
:10410000AA0FBB1FAA0FBB1FAA0FBB1FFE01319630
:10411000EA0FFB1FB096208331834283538364836D
:1041200075838683978388A18F5F88A380E090E062
:10413000A8E4B3E48B879C87AD87BE876B857C85BD
:104140008D859E8520E030E04AE753E40E94B40C60
:10415000DC01CB018F839887A987BA876F81788527
:1041600089859A8520E030E040E85FE30E94BA0E3E
:1041700088232CF481E090E09E838D833FC06F8183
:10418000788589859A8520E03FEF4FE757E40E94C4
:104190005A0E18164CF56B857C858D859E8520E022
:1041A00030E040E251E40E94B40CDC01CB01BC01E0
:1041B000CD010E94BB01DC01CB019E838D830FC02A
:1041C00089E190E09C838B838B819C810197F1F73F
:1041D0009C838B838D819E8101979E838D838D81AE
:1041E0009E81009769F7B8C86F81788589859A851F
:1041F0000E94BB01DC01CB019E838D838D819E815A
:104200009A83898389819A810197F1F79A838983B7
:10421000A3C8DF93CF9300D000D00F92CDB7DEB705
:1042200089836A834B838A81883008F0D5C089816D
:10423000843008F0D1C08981282F30E03D832C8361
:104240008C819D818130910509F443C02C813D8191
:10425000223031052CF48C819D81009771F0BCC017
:104260002C813D812230310509F45FC08C819D8114
:104270008330910509F485C0AFC08B818130A1F4F2
:10428000AAE3B0E0EAE3F0E08081482F8A81282F9A
:1042900030E081E090E0022E02C0880F991F0A945E
:1042A000E2F7842B8C9398C0AAE3B0E0EAE3F0E055
:1042B0008081482F8A81282F30E081E090E0022E13
:1042C00002C0880F991F0A94E2F7809584238C938B
:1042D00083C08B818130A1F4A7E3B0E0E7E3F0E095
:1042E0008081482F8A81282F30E081E090E0022EE3
:1042F00002C0880F991F0A94E2F7842B8C936CC03C
:10430000A7E3B0E0E7E3F0E08081482F8A81282F1F
:1043100030E081E090E0022E02C0880F991F0A94DD
:10432000E2F7809584238C9357C08B818130A1F470
:10433000A4E3B0E0E4E3F0E08081482F8A81282FF5
:1043400030E081E090E0022E02C0880F991F0A94AD
:10435000E2F7842B8C9340C0A4E3B0E0E4E3F0E008
:104360008081482F8A81282F30E081E090E0022E62
:1043700002C0880F991F0A94E2F7809584238C93DA
:104380002BC08B818130A1F4A1E3B0E0E1E3F0E048
:104390008081482F8A81282F30E081E090E0022E32
:1043A00002C0880F991F0A94E2F7842B8C9314C0E3
:1043B000A1E3B0E0E1E3F0E08081482F8A81282F7B
:1043C00030E081E090E0022E02C0880F991F0A942D
:1043D000E2F7809584238C930F900F900F900F90AD
:1043E0000F90CF91DF910895DF93CF9300D000D04D
:1043F0000F92CDB7DEB789836A834B838A81883079
:1044000008F0D5C08981843008F0D1C08981282F77
:1044100030E03D832C838C819D818130910509F4AE
:1044200043C02C813D81223031052CF48C819D814B
:10443000009771F0BCC02C813D812230310509F418
:104440005FC08C819D818330910509F485C0AFC028
:104450008B818130A1F4ABE3B0E0EBE3F0E080814D
:10446000482F8A81282F30E081E090E0022E02C0A0
:10447000880F991F0A94E2F7842B8C9398C0ABE3C2
:10448000B0E0EBE3F0E08081482F8A81282F30E014
:1044900081E090E0022E02C0880F991F0A94E2F793
:1044A000809584238C9383C08B818130A1F4A8E311
:1044B000B0E0E8E3F0E08081482F8A81282F30E0E7
:1044C00081E090E0022E02C0880F991F0A94E2F763
:1044D000842B8C936CC0A8E3B0E0E8E3F0E080812B
:1044E000482F8A81282F30E081E090E0022E02C020
:1044F000880F991F0A94E2F7809584238C9357C004
:104500008B818130A1F4A5E3B0E0E5E3F0E08081A8
:10451000482F8A81282F30E081E090E0022E02C0EF
:10452000880F991F0A94E2F7842B8C9340C0A5E36F
:10453000B0E0E5E3F0E08081482F8A81282F30E069
:1045400081E090E0022E02C0880F991F0A94E2F7E2
:10455000809584238C932BC08B818130A1F4A2E3BE
:10456000B0E0E2E3F0E08081482F8A81282F30E03C
:1045700081E090E0022E02C0880F991F0A94E2F7B2
:10458000842B8C9314C0A2E3B0E0E2E3F0E08081DE
:10459000482F8A81282F30E081E090E0022E02C06F
:1045A000880F991F0A94E2F7809584238C930F90CB
:1045B0000F900F900F900F90CF91DF910895DF93A0
:1045C000CF9300D000D00F92CDB7DEB78A836B8334
:1045D00019828B81883008F084C08A81843008F089
:1045E00080C08A81282F30E03D832C834C815D81FF
:1045F0004130510579F18C819D818230910534F4EF
:104600002C813D812115310569F06BC04C815D81A4
:1046100042305105B9F18C819D818330910509F4B7
:1046200049C05FC0E9E3F0E08081282F30E08B8152
:10463000882F90E0A90102C0559547958A95E2F729
:10464000CA0181709070882319F081E0898349C084
:10465000198247C0E6E3F0E08081282F30E08B81AB
:10466000882F90E0A90102C0559547958A95E2F7F9
:10467000CA0181709070882319F081E0898331C06C
:1046800019822FC0E3E3F0E08081282F30E08B8196
:10469000882F90E0A90102C0559547958A95E2F7C9
:1046A000CA0181709070882319F081E0898319C054
:1046B000198217C0E0E3F0E08081282F30E08B8181
:1046C000882F90E0A90102C0559547958A95E2F799
:1046D000CA0181709070882319F081E0898301C03C
:1046E000198289810F900F900F900F900F90CF91AA
:1046F000DF910895DF93CF9300D000D0CDB7DEB720
:1047000089836A838981843090F58981282F30E0FC
:104710003C832B838B819C8181309105D1F02B814F
:104720003C81223031052CF48B819C81009761F013
:104730001EC02B813C812230310581F08B819C8110
:104740008330910581F013C0EAE3F0E08A81808331
:104750000EC0E7E3F0E08A81808309C0E4E3F0E083
:104760008A81808304C0E1E3F0E08A8180830F9036
:104770000F900F900F90CF91DF910895DF93CF931B
:1047800000D000D0CDB7DEB789836A8389818430B9
:1047900090F58981282F30E03C832B838B819C818D
:1047A00081309105D1F02B813C81223031052CF4F0
:1047B0008B819C81009761F01EC02B813C8122304F
:1047C000310581F08B819C818330910581F013C08C
:1047D000EBE3F0E08A8180830EC0E8E3F0E08A81B9
:1047E000808309C0E5E3F0E08A81808304C0E2E3CE
:1047F000F0E08A8180830F900F900F900F90CF91FF
:10480000DF910895DF93CF9300D000D0CDB7DEB70E
:104810008A8319828A81843090F58A81282F30E03A
:104820003C832B838B819C8181309105D1F02B813E
:104830003C81223031052CF48B819C81009761F002
:104840001EC02B813C812230310581F08B819C81FF
:104850008330910581F013C0E9E3F0E08081898322
:104860000EC0E6E3F0E08081898309C0E3E3F0E075
:104870008081898304C0E0E3F0E0808189838981BD
:104880000F900F900F900F90CF91DF910895DF93CD
:10489000CF93CDB7DEB760970FB6F894DEBF0FBEEB
:1048A000CDBF80E064E040E00E94092180E065E047
:1048B00040E00E94092180E066E040E00E9409217A
:1048C00080E067E040E00E94092180E060E040E095
:1048D0000E94092180E061E040E00E94092180E01F
:1048E00062E040E00E94092180E063E040E00E9435
:1048F00009211F86B1C08F85982F9C5F80E0692FAA
:1049000041E00E9409218F85982F9C5F80E0692FEC
:1049100040E00E94F421188A1FC080E068890E944C
:10492000DF228823B1F48F85882F90E0880F991FAC
:10493000880F991F982F8889890F8F5F0E943125D2
:1049400060960FB6F894DEBF0FBECDBFCF91DF915A
:10495000089588898F5F888B88898430F0F28F85ED
:10496000982F9C5F80E0692F40E00E94092180E041
:1049700090E0A0EAB0E48B879C87AD87BE876B850B
:104980007C858D859E8520E030E04AE753E40E94D7
:10499000B40CDC01CB018F839887A987BA876F811C
:1049A000788589859A8520E030E040E85FE30E94C1
:1049B000BA0E88232CF481E090E09E838D833FC063
:1049C0006F81788589859A8520E03FEF4FE757E42E
:1049D0000E945A0E18164CF56B857C858D859E8538
:1049E00020E030E040E251E40E94B40CDC01CB0155
:1049F000BC01CD010E94BB01DC01CB019E838D83F4
:104A00000FC089E190E09C838B838B819C8101970F
:104A1000F1F79C838B838D819E8101979E838D838B
:104A20008D819E81009769F714C06F817885898593
:104A30009A850E94BB01DC01CB019E838D838D8111
:104A40009E819A83898389819A810197F1F79A835C
:104A500089838F858F5F8F878F85843008F44BCF54
:104A600048CFDF93CF9300D000D0CDB7DEB78A8395
:104A700019828A81282F30E03C832B838B819C8193
:104A80008830910509F470C02B813C8129303105B3
:104A90005CF58B819C818430910509F459C02B8190
:104AA0003C81253031059CF48B819C8182309105BD
:104AB00009F448C02B813C81233031050CF045C0FE
:104AC0008B819C818130910509F439C067C02B81AD
:104AD0003C812630310509F441C08B819C818730AF
:104AE00091050CF03EC037C02B813C812C30310544
:104AF00009F446C08B819C818D3091055CF42B813B
:104B00003C812A303105B1F18B819C818B3091053C
:104B1000A4F52DC02B813C812E303105B9F18B815C
:104B20009C818E3091057CF12B813C812F303105A9
:104B300079F18B819C818031910569F12FC087E0EB
:104B400089832EC088E089832BC089E0898328C0AF
:104B50008FE2898325C084E0898322C085E0898330
:104B60001FC086E089831CC08AE2898319C081E066
:104B7000898316C082E0898313C083E0898310C0D3
:104B80008DE289830DC08DE089830AC0198208C037
:104B90008DE3898305C08BE2898302C08A81898382
:104BA00089810F900F900F900F90CF91DF91089512
:104BB000DF93CF93CDB7DEB72E970FB6F894DEBF55
:104BC0000FBECDBF82E063E041E00E94092182E098
:104BD00064E041E00E94092180E090E0A0EAB1E4B5
:104BE0008B879C87AD87BE876B857C858D859E85F1
:104BF00020E030E04AE753E40E94B40CDC01CB0132
:104C00008F839887A987BA876F81788589859A85E8
:104C100020E030E040E85FE30E94BA0E88232CF4E5
:104C200081E090E09E838D833FC06F817885898588
:104C30009A8520E03FEF4FE757E40E945A0E18167E
:104C40004CF56B857C858D859E8520E030E040E2CB
:104C500051E40E94B40CDC01CB01BC01CD010E94E7
:104C6000BB01DC01CB019E838D830FC089E190E005
:104C70009C838B838B819C810197F1F79C838B8331
:104C80008D819E8101979E838D838D819E8100976A
:104C900069F714C06F81788589859A850E94BB0168
:104CA000DC01CB019E838D838D819E819A838983D4
:104CB00089819A810197F1F79A83898383E06FEF65
:104CC0000E947A2388E30E9474268CE00E94742656
:104CD00081E00E9474262E960FB6F894DEBF0FBEB8
:104CE000CDBFCF91DF910895DF93CF93CDB7DEB7DE
:104CF000E9970FB6F894DEBF0FBECDBF89AF82E053
:104D000063E040E00E94F42180E090E0A0E8BFE38F
:104D10008DAB9EABAFABB8AF6DA97EA98FA998AD97
:104D200020E030E04AE753E40E94B40CDC01CB0100
:104D300089AB9AABABABBCAB69A97AA98BA99CA98F
:104D400020E030E040E85FE30E94BA0E88232CF4B4
:104D500081E090E098AB8FA73FC069A97AA98BA9A1
:104D60009CA920E03FEF4FE757E40E945A0E181627
:104D70004CF56DA97EA98FA998AD20E030E040E206
:104D800051E40E94B40CDC01CB01BC01CD010E94B6
:104D9000BB01DC01CB0198AB8FA70FC089E190E08C
:104DA0009EA78DA78DA59EA50197F1F79EA78DA71C
:104DB0008FA598A9019798AB8FA78FA598A9009761
:104DC00069F714C069A97AA98BA99CA90E94BB01A3
:104DD000DC01CB0198AB8FA78FA598A99CA78BA7C7
:104DE0008BA59CA50197F1F79CA78BA782E064E0B7
:104DF00041E00E94F42180E090E0A0E8BFE38FA3AF
:104E000098A7A9A7BAA76FA178A589A59AA520E018
:104E100030E04AE753E40E94B40CDC01CB018BA3E1
:104E20009CA3ADA3BEA36BA17CA18DA19EA120E0FC
:104E300030E040E85FE30E94BA0E88232CF481E062
:104E400090E09AA389A33FC06BA17CA18DA19EA1F4
:104E500020E03FEF4FE757E40E945A0E18164CF53A
:104E60006FA178A589A59AA520E030E040E251E441
:104E70000E94B40CDC01CB01BC01CD010E94BB013E
:104E8000DC01CB019AA389A30FC089E190E098A32C
:104E90008F8F8F8D98A10197F1F798A38F8F89A19C
:104EA0009AA101979AA389A389A19AA1009769F76A
:104EB00014C06BA17CA18DA19EA10E94BB01DC014D
:104EC000CB019AA389A389A19AA19E8F8D8F8D8DE5
:104ED0009E8D0197F1F79E8F8D8F83E069AD0E94C3
:104EE000BE2380E090E0A0E8BFE3898F9A8FAB8F6C
:104EF000BC8F698D7A8D8B8D9C8D20E030E04AE7E8
:104F000053E40E94B40CDC01CB018D8B9E8BAF8BE4
:104F1000B88F6D897E898F89988D20E030E040E8D8
:104F20005FE30E94BA0E88232CF481E090E09C8B12
:104F30008B8B3FC06D897E898F89988D20E03FEFF4
:104F40004FE757E40E945A0E18164CF5698D7A8D7A
:104F50008B8D9C8D20E030E040E251E40E94B40C47
:104F6000DC01CB01BC01CD010E94BB01DC01CB0106
:104F70009C8B8B8B0FC089E190E09A8B898B898900
:104F80009A890197F1F79A8B898B8B899C89019774
:104F90009C8B8B8B8B899C89009769F714C06D89DA
:104FA0007E898F89988D0E94BB01DC01CB019C8B8F
:104FB0008B8B8B899C89988B8F878F85988901979C
:104FC000F1F7988B8F8782E064E040E00E94F42143
:104FD00080E090E0A0E8BFE38B879C87AD87BE8729
:104FE0006B857C858D859E8520E030E04AE753E423
:104FF0000E94B40CDC01CB018F839887A987BA8704
:105000006F81788589859A8520E030E040E85FE30C
:105010000E94BA0E88232CF481E090E09E838D8359
:105020003FC06F81788589859A8520E03FEF4FE703
:1050300057E40E945A0E18164CF56B857C858D85B9
:105040009E8520E030E040E251E40E94B40CDC0197
:10505000CB01BC01CD010E94BB01DC01CB019E83D1
:105060008D830FC089E190E09C838B838B819C8131
:105070000197F1F79C838B838D819E8101979E839D
:105080008D838D819E81009769F714C06F8178852B
:1050900089859A850E94BB01DC01CB019E838D83AB
:1050A0008D819E819A83898389819A810197F1F705
:1050B0009A838983E9960FB6F894DEBF0FBECDBF01
:1050C000CF91DF910895DF93CF93CDB7DEB7E99706
:1050D0000FB6F894DEBF0FBECDBF89AF82E063E0AC
:1050E00041E00E94F42180E090E0A0E8BFE38DABB6
:1050F0009EABAFABB8AF6DA97EA98FA998AD20E0EC
:1051000030E04AE753E40E94B40CDC01CB0189ABE8
:105110009AABABABBCAB69A97AA98BA99CA920E0DF
:1051200030E040E85FE30E94BA0E88232CF481E06F
:1051300090E098AB8FA73FC069A97AA98BA99CA9D9
:1051400020E03FEF4FE757E40E945A0E18164CF547
:105150006DA97EA98FA998AD20E030E040E251E42E
:105160000E94B40CDC01CB01BC01CD010E94BB014B
:10517000DC01CB0198AB8FA70FC089E190E09EA71F
:105180008DA78DA59EA50197F1F79EA78DA78FA549
:1051900098A9019798AB8FA78FA598A9009769F751
:1051A00014C069A97AA98BA99CA90E94BB01DC0142
:1051B000CB0198AB8FA78FA598A99CA78BA78BA590
:1051C0009CA50197F1F79CA78BA782E064E041E0E2
:1051D0000E94F42180E090E0A0E8BFE38FA398A7AD
:1051E000A9A7BAA76FA178A589A59AA520E030E064
:1051F0004AE753E40E94B40CDC01CB018BA39CA3CF
:10520000ADA3BEA36BA17CA18DA19EA120E030E047
:1052100040E85FE30E94BA0E88232CF481E090E01E
:105220009AA389A33FC06BA17CA18DA19EA120E080
:105230003FEF4FE757E40E945A0E18164CF56FA146
:1052400078A589A59AA520E030E040E251E40E94CB
:10525000B40CDC01CB01BC01CD010E94BB01DC011F
:10526000CB019AA389A30FC089E190E098A38F8F07
:105270008F8D98A10197F1F798A38F8F89A19AA19B
:1052800001979AA389A389A19AA1009769F714C0ED
:105290006BA17CA18DA19EA10E94BB01DC01CB0171
:1052A0009AA389A389A19AA19E8F8D8F8D8D9E8DA2
:1052B0000197F1F79E8F8D8F83E069AD0E94BE2329
:1052C00080E090E0A0E8BFE3898F9A8FAB8FBC8F1E
:1052D000698D7A8D8B8D9C8D20E030E04AE753E418
:1052E0000E94B40CDC01CB018D8B9E8BAF8BB88FF1
:1052F0006D897E898F89988D20E030E040E85FE3FA
:105300000E94BA0E88232CF481E090E09C8B8B8B5A
:105310003FC06D897E898F89988D20E03FEF4FE7F0
:1053200057E40E945A0E18164CF5698D7A8D8B8DB4
:105330009C8D20E030E040E251E40E94B40CDC019E
:10534000CB01BC01CD010E94BB01DC01CB019C8BD8
:105350008B8B0FC089E190E09A8B898B89899A8920
:105360000197F1F79A8B898B8B899C8901979C8B8C
:105370008B8B8B899C89009769F714C06D897E8916
:105380008F89988D0E94BB01DC01CB019C8B8B8B9C
:105390008B899C89988B8F878F8598890197F1F7E6
:1053A000988B8F8782E064E040E00E94F42180E0E7
:1053B00090E0A0E8BFE38B879C87AD87BE876B85B5
:1053C0007C858D859E8520E030E04AE753E40E948D
:1053D000B40CDC01CB018F839887A987BA876F81D2
:1053E000788589859A8520E030E040E85FE30E9477
:1053F000BA0E88232CF481E090E09E838D833FC019
:105400006F81788589859A8520E03FEF4FE757E4E3
:105410000E945A0E18164CF56B857C858D859E85ED
:1054200020E030E040E251E40E94B40CDC01CB010A
:10543000BC01CD010E94BB01DC01CB019E838D83A9
:105440000FC089E190E09C838B838B819C810197C5
:10545000F1F79C838B838D819E8101979E838D8341
:105460008D819E81009769F714C06F817885898549
:105470009A850E94BB01DC01CB019E838D838D81C7
:105480009E819A83898389819A810197F1F79A8312
:105490008983E9960FB6F894DEBF0FBECDBFCF91DA
:1054A000DF910895DF93CF9300D00F92CDB7DEB791
:1054B0009B838A8319820EC08981282F30E08A81DC
:1054C0009B81FC01E20FF31F80810E946328898188
:1054D0008F5F89838981282F30E08A819B81FC013D
:1054E000E20FF31F8081882339F70F900F900F9000
:1054F000CF91DF910895DF93CF9300D000D00F922A
:10550000CDB7DEB78A836B838A81282F30E03D8355
:105510002C838C819D8181309105C1F02C813D814E
:10552000223031052CF48C819D81009761F019C0E7
:105530002C813D812230310569F08C819D81833041
:10554000910561F00EC08B8189830BC08B81805CDB
:10555000898307C08B81805F898303C08B81805BD7
:105560008983898180680E9474260F900F900F9024
:105570000F900F90CF91DF910895DF93CF9300D0DC
:1055800000D0CDB7DEB789836A835C834B83898182
:105590006A810E947B2A8B819C810E94522A0F90F3
:1055A0000F900F900F90CF91DF910895DF93CF93DD
:1055B000CDB7DEB762970FB6F894DEBF0FBECDBF92
:1055C0009A8B898B89899A899E012F5F3F4FB901F8
:1055D0004AE050E00E947B2BCE0101960E94522AA5
:1055E00062960FB6F894DEBF0FBECDBFCF91DF91AC
:1055F0000895DF93CF93CDB7DEB781E00E94742684
:10560000CF91DF910895629FD001739FF001829F37
:10561000E00DF11D649FE00DF11D929FF00D839F41
:10562000F00D749FF00D659FF00D9927729FB00DDE
:10563000E11DF91F639FB00DE11DF91FBD01CF01F1
:1056400011240895A1E21A2EAA1BBB1BFD010DC057
:10565000AA1FBB1FEE1FFF1FA217B307E407F50722
:1056600020F0A21BB30BE40BF50B661F771F881FFE
:10567000991F1A9469F760957095809590959B0194
:10568000AC01BD01CF0108952F923F924F925F92DE
:105690006F927F928F929F92AF92BF92CF92DF9242
:1056A000EF92FF920F931F93CF93DF93CDB7DEB7A7
:1056B000CA1BDB0B0FB6F894DEBF0FBECDBF09943B
:1056C0002A88398848885F846E847D848C849B8492
:1056D000AA84B984C884DF80EE80FD800C811B81A0
:1056E000AA81B981CE0FD11D0FB6F894DEBF0FBECF
:1056F000CDBFED010895FB019F01E8944230C4F055
:105700004532B4F44A3029F497FB1EF49095819504
:105710009F4F642F77270E94AC2B805D8A330CF05B
:10572000895D8193CB010097A1F716F45DE2519357
:105730001082C9010C949C2BDC01FC01672F719134
:105740007723E1F7329704C07C916D937083629167
:10575000AE17BF07C8F30895AA1BBB1B51E107C0D2
:10576000AA1FBB1FA617B70710F0A61BB70B881FF1
:10577000991F5A95A9F780959095BC01CD01089580
:04578000F894FFCFCB
:1057840043616C63756C61746F720000000000000B
:1057940000000000010202030303030404040404E0
:1057A40004040405050505050505050505050505A8
:1057B4000505050606060606060606060606060688
:1057C4000606060606060606060606060606060675
:1057D4000606060707070707070707070707070758
:1057E4000707070707070707070707070707070745
:1057F4000707070707070707070707070707070735
:105804000707070707070707070707070707070724
:105814000707070808080808080808080808080807
:1058240008080808080808080808080808080808F4
:1058340008080808080808080808080808080808E4
:1058440008080808080808080808080808080808D4
:1058540008080808080808080808080808080808C4
:1058640008080808080808080808080808080808B4
:1058740008080808080808080808080808080808A4
:105884000808080808080808080808080808080894
:0458940008080800F8
:00000001FF
